:03020000020206F1
:08025F00E4F532F5330202035D
:03020300021B4E8D
:0400000002020032C6
:01000B0032C2
:0100130032BA
:01001B0032B2
:0100230032AA
:01002B0032A2
:01003300329A
:01003B003292
:01004300328A
:01004B003282
:01005300327A
:01005B003272
:01006300326A
:0101000032CC
:0101040032C8
:0101080032C4
:01010C0032C0
:0101100032BC
:0101140032B8
:0101180032B4
:0101200032AC
:0101240032A8
:0101280032A4
:01012C0032A0
:01013000329C
:010134003298
:010138003294
:01013C003290
:01014000328C
:010148003284
:01014C003280
:01015000327C
:010154003278
:010158003274
:01015C003270
:01016000326C
:01017000325C
:010174003258
:010178003254
:01017C003250
:01018000324C
:010184003248
:010188003244
:01018C003240
:01019000323C
:010194003238
:010198003234
:01019C003230
:0101A000322C
:0101A8003224
:0101AC003220
:0101B000321C
:0101B4003218
:0101B8003214
:2002670022AE82AF837C007D00C3EC9EED9F501B7AB07B04EA24FFF8EB34FFF988028903DB
:20028700E84970F00CBC00E10D80DE22AE82AF837C007D00C3EC9EED9F501B7A0A7B00EA08
:2002A70024FFF8EB34FFF988028903E84970F00CBC00E10D80DE2275AF0790E67BE090E6B6
:2002C7007CF0DAF322227F00BFFF00500B90E678E0FE20E0030F80F090E678E0FF20E204E1
:2002E700EF20E10D90E678E0FF74404FF075820122758200227F00BFFF00500B90E678E0A1
:20030700FE20E0030F80F090E678E0FF30E20D90E678E0FF74404FF0758201227582002277
:200327007F0090E678E0FE20E204758200220FBFFF0040EE758201227F0090E678E0FE20CC
:20034700E604758200220FBFFF0040EE75820122AF82C3E49522E433FE90E678E0FD74801B
:200367004DF0C007C006120327D006D00790E679EFF0C007C0061202CDE582D006D0077003
:2003870014E523600C90E678E0FD74404DF012033F75820022EE601090000AC007C006120E
:2003A7000293D006D00780B1E523600990E678E0FF74404FF075820122AE82AF837D00E5B4
:2003C700267003F582227522647523007582A2C007C006C005120357E582D005D006D00711
:2003E70060030204CFAC2590E679ECF0C007C006C0051202CDE582D005D006D007600302A1
:2004070004CF90E679E524F0C007C006C0051202CDE582D005D006D00760030204CF90E650
:2004270078E0FC74404CF0C007C006C00512033F90E678E0FC74804CF012032790E6797432
:20044700A3F01202CDE582D005D006D007707990E679E08E828F83F0C007C006C005120208
:20046700FCE582D005D006D007705DFCC3EC9526502A90E679E08E828F83F0A3AE82AF83FD
:20048700C007C006C005C0041202FCE582D004D005D006D00770310C8C0580D090E678E016
:2004A700FF74204FF090E679E0C0051202FCE582D005701490E678E0FF74404FF090E67950
:2004C700E0C00512033FD0058D8222AE82AF837D00E5297003F58222752264752300758293
:2004E700A2C007C006C005120357E582D005D006D0076003020594AC2890E679ECF0C00748
:20050700C006C0051202CDE582D005D006D007600302059490E679E527F0C007C006C00544
:200527001202CDE582D005D006D0077060FCC3EC952950498E828F83E090E679F08E828F98
:2005470083E0FBA3AE82AF83903A04E02BF0903A02E0FAA3E0FB903A0274012AF0E43BA327
:20056700F0C007C006C005C0041202CDE582D004D005D006D00770150C8C0580B190E6788F
:20058700E0FF74404FF0C00512033FD0058D8222903A17E0FF903A00E0F524A3E0F5258FB4
:2005A7002690E740C0071203C0AE82D0077D00903A00E0FBA3E0FC903A00EF2BF0ED3CA373
:2005C700F08E8222AF82903A00E0F527A3E0F5288F2990E740C0071204D2D0077E00903A1E
:2005E70000E0FCA3E0FD903A00EF2CF0EE3DA3F022AE82AF837D00E52B7003F58222752251
:20060700647523007582A6C007C006C005120357E582D005D006D00760030206EA90E6794F
:20062700E52AF0C007C006C0051202CDE582D005D006D00760030206EA90E678E0FC7440C5
:200647004CF0C007C006C00512033F90E678E0FC74804CF012032790E67974A7F01202CDA0
:20066700E582D005D006D007707990E679E08E828F83F0C007C006C0051202FCE582D00522
:20068700D006D007705DFCC3EC952B502A90E679E08E828F83F0A3AE82AF83C007C006C0C1
:2006A70005C0041202FCE582D004D005D006D00770310C8C0580D090E678E0FF74204FF06F
:2006C70090E679E0C0051202FCE582D005701490E678E0FF74404FF090E679E0C005120346
:2006E7003FD0058D8222AE82AF837D00E52D7003F582227522647523007582A6C007C006F4
:20070700C005120357E582D005D006D00760030207E090E679E52CF0C007C006C005120216
:20072700CDE582D005D006D00760030207E0AC2C7B00C3EB952D40030207D08E828F83E0CF
:20074700FAA3AE82AF8390E679EAF0C007C006C005C004C0031202CDE582D003D004D0052D
:20076700D006D00770730C8C2C0B8B05EC20E3C2C3EB952D50BC90E678E0FA74404AF0C0E0
:2007870007C006C005C004C00312033F7522647523007582A6120357E582D003D004D00566
:2007A700D006D007703390E679ECF0C007C006C005C004C0031202CDE582D003D004D0057A
:2007C700D006D007701302073990E678E0FF74404FF0C00512033FD005903A05E52CF08D95
:2007E7008222903A17E0FF903A05E0F52A8F2B90E740C0071205F8AE82D007903A05E02F94
:20080700F08E8222AFB674BF5F4480F5B6AFB1747F5FF5B190000112026843B180903A0E98
:20082700E4F02243B180AFB674BF5F4480F5B6E5B120E620AFB1747F5FF5B1740455B2440A
:2008470070F5B2740455804420F58090000112026843B180903A0EE4F02290E6017480F0AA
:200867000000000090E670E4F090E671F0903A0FE5B2F0903A0E747BF053B204AFB674BF28
:200887005F4480F5B6AFB1747F5FF5B143B272740455804422F58090000512026843B18017
:2008A700C2817E007F002087208E028F037C007D00C3EA94FFEB94FFEC9400ED64809480EC
:2008C70050070EBE00E00F80DD43B2013087047FC880027F64903A0CEFF0903A08E4F0A347
:2008E700F0A3F0A3F0903A07F02275B43F43B201C28090E60174E3F00000000090E60BE435
:20090700F0000000000000000090E6997480F00000000090E6997480F090E604F000000090
:200927000090E61AE4F00000000090E6047406F00000000090E61A740DF00000000090E6F1
:2009470004E4F000000000223087047F1680027F0B903A0CE0FE2FF07F00D280C2800FBF86
:20096700400040F6D281D280C280D280C280D280C280D280C280903A0FE0F5B2E5B130E64B
:20098700030208F12285B42E75B4FF903A17E0FE903A08E0FAA3E0FBA3E0FCA3E0FD8E002B
:2009A70079007E007F00903A08E82AF0E93BA3F0EE3CA3F0EF3DA3F090E68BE06022FA75E1
:2009C7009B40759AE775AF07903A07E0F990E67BE0F5A0D28029F9C280DAF5903A07E9F0D5
:1109E700852EB490E68BE0FFBF4000500302094F22EA
:20006C0028015A5445580A130000000143000000000000000000000000000000000030303F
:08008C003030303030303030EC
:2009F8002290E683E4F07420F003F07430F07401F07421F07411F07431F07412F07432F0E5
:200A18007404F07424F07416F07436F022AF82E50924E0500375091F90E6BFE0701090E67A
:200A3800BEE0FEC39509500690E6BEE0F50975AF078F9B85089A7E407FE7EE04F59E7E4056
:200A58007FE70EBE00010F8F9D90E67C7403F090E67BE0FF7E00BF00028015C3EE95095074
:200A78000F90E67CEFF0E4F090E67BE0FF0E80E60EEE2EFE90E740F090E7417403F090E602
:200A98008AE4F090E68BEEF022903A15E0FEA3E0FFC374409EE49F50067C407D0080048E67
:200AB800048F05903A17ECF07D00903A15EEC39CF0EF9DA3F022903A18E0FFBF3102803C80
:200AD800BF3202803ABF39028005BF3C3E8024903A04E4F0903A02F0A3F090E6BBE0FE7F76
:200AF8000090E6BAE0FD7C00903A00ED4FF0EC4EA3F02290E6BAE0903A05F02202080B90DA
:200B18003A0EE0FFBF7B012202086190E6A0E0FF74014FF022C021C0E0C0F0C082C083C08D
:200B380007C006C005C004C003C002C001C000C0D075D00090E6B9E0FF903A18F090E6B561
:200B58007401F090E6B9E0FF24F35003020EFEEFF5F0240B83F582E5F0241183F583E47339
:200B78009246FEC6FEFE619395A5AABABF0B0C0E0C0E0E0D0E0E0E0E0E0E90E6B8E0FFBFFA
:200B98008002800DBF8102801EBF8202802F020EFE90E740E4F090E741F090E68AF090E6B5
:200BB8008B7402F0020EFE90E740E4F090E741F090E68AF090E68B7402F0020EFE90E6BC54
:200BD800E0FF600FBF01028019BF80028005BF812F801E90E6A0E0FF53070190E740EFF09B
:200BF800803A90E6A1E0FF53070190E740EFF0802B90E6A2E0FF53070190E740EFF0801C0D
:200C180090E6BCE0C31314540324A3F582E434E6F583E0FF53070190E740EFF090E741E449
:200C3800F090E68AF090E68B7402F0020EFE90E6B8E0FFBF02028003020EFE90E6BAE06076
:200C580003020EFE90E6BCE0FF600FBF01028016BF80028005BF8126801890E6A0E0FF7466
:200C7800FE5FF0020EFE90E6A1E0FF74FE5FF0020EFE90E6A2E0FF74FE5FF0020EFE90E600
:200C9800BCE0C31314540324A3FEE434E6FF90E6BCE0C31314540324A3F582E434E6F58396
:200CB800E0FD5305FE8E828F83EDF0020EFE90E6B8E0FFBF02028003020EFE90E6BAE0600B
:200CD80003020EFE90E6BCE0FF600FBF01028015BF80028005BF8123801690E6A0E0FF74EC
:200CF800014FF0804390E6A1E0FF74014FF0803890E6A2E0FF74014FF0802D90E6BCE0C34A
:200D18001314540324A3FEE434E6FF90E6BCE0C31314540324A3F582E434E6F583E0FD4354
:200D380005FE8E828F83EDF090E6BCE05480C423541FFF90E6BCE0FE740F5E420790E68327
:200D5800EFF074204FF0020EFE90E6BBE0FFBF01028019BF02028028BF03028053BF060386
:200D7800020E45BF0703020E59020E887EF87F1B8F0690E6B3EEF090E6B474F8F0020EFEFC
:200D980090E680E0FF30E7147E147F1C8F0690E6B3EEF090E6B47414F0020EFE7E4A7F1C5F
:200DB8008F0690E6B3EEF090E6B4744AF0020EFE90E6BAE0FFBF0102800FBF0202801EBF19
:200DD8000302802DBF0452803C7582CA7ECA7F1B8F068E08750905120A25020EFE7582CF12
:200DF8007ECF7F1B8F068E08750921120A25020EFE75828A7E8A7F008F068E0875090A120E
:200E18000A25020EFE7582F07EF07F1B8F068E08750908120A25020EFE7E807F1C8F0690D0
:200E3800E6B3EEF090E6B47480F0020EFE7E0A7F1C8F0690E6B3EEF090E6B4740AF0020EA0
:200E5800FE90E680E0FF30E7147E4A7F1C8F0690E6B3EEF090E6B4744AF0020EFE7E147F86
:200E78001C8F0690E6B3EEF090E6B47414F0807690E6A0E0FF74014FF0806B806990E740D6
:200E9800E4F090E68AF090E68B04F080591209F9805490E740E4F090E68AF090E68B04F050
:200EB80080441209F9803F90E6B8E0FFBF823790E6BCE0C31314540375F002A4241AF582EB
:200ED800743A35F0F583E4F0A3F090E685E090E740F090E684E0FF90E741F090E68AE4F071
:200EF80090E68B7402F090E6B8E0FFBF400302106EBFC002800302109C90E6BFE0FE7F00A0
:200F180090E6BEE0FD7C00903A15ED4FF0EC4EA3F0120AA190E6B9E0FFBF2202801FBF3018
:200F380003021013BF38028031BF3A028055BF3B03020FDABF3D03020FF302106390E6B56C
:200F5800E4F090E68AF090E68B7428F090E6B3E4F090E6B4746CF002109C90E6BBE0FE7FF5
:200F78000090E6BAE0FD7C00903A00ED4FF0EC4EA3F090E68AE4F0120597E58290E68BF033
:200F980002109C903A02E0FEA3E090E740EEF0903A02E0A3E090E741F0903A04E090E7428B
:200FB800F07522007523017582A2120357AF8290E743EFF090E68AE4F090E68B7404F002EB
:200FD800109C90E6BAE0903A05F090E68AE4F01207E9E58290E68BF002109C752200752373
:200FF800017582A6120357AF8290E740EFF090E68AE4F090E68B04F002109C759B077E07F5
:201018007F3A8F068E9A759E417E417FE78F068E9DC0027A071202BED002AFB674BF5F44E7
:2010380080F5B6E5B130E60790E740E4F0800990E7407401F012080B90E7487401F090E6CB
:201058008AE4F090E68B7409F0803990E6A0E0FF74014FF0802E90E6BFE0700690E6BEE0FD
:20107800601A903A197401F090E68BE4F0AF9174EF5FF59190E65D7401F0801E120ACE90E9
:20109800E68BE4F0AF9174EF5FF59190E65D7401F090E6A0E0FF74804FF0D0D0D000D001CA
:2010B800D002D003D004D005D006D007D083D082D0F0D0E0D02132C0E0C082C083C007C039
:2010D800D075D000AF9174EF5FF59190E65D7402F0D0D0D007D083D082D0E032C0E0C08242
:2010F800C083C007C0D075D000AF9174EF5FF59190E65D7404F0D0D0D007D083D082D0E06A
:2011180032C0E0C082C083C007C0D075D000AF9174EF5FF59190E65D7408F0D0D0D007D0B6
:2011380083D082D0E032C0E0C082C083C007C0D075D000AF9174EF5FF59190E65D7410F050
:20115800D0D0D007D083D082D0E032C0E0C082C083C007C0D075D000AF9174EF5FF59190A0
:20117800E65D7420F0D0D0D007D083D082D0E032C0E0C082C083C007C0D075D000AF91741D
:20119800EF5FF59190E65D7440F0D0D0D007D083D082D0E032C021C0E0C0F0C082C083C078
:2011B80007C006C005C004C003C002C001C000C0D075D000C2E8120AA1903A18E0FFBF30CF
:2011D80002803DBF3802800FBF3A028033BF3B028015BF3D22802990E68AE4F0120597E543
:2011F8008290E68BF0801990E68AE4F01207E9E58290E68BF0800990E68AE4F090E68BF04F
:20121800AF9174EF5FF59190E65F7401F0D2E8D0D0D000D001D002D003D004D005D006D005
:2012380007D083D082D0F0D0E0D02132C021C0E0C0F0C082C083C007C006C005C004C003C8
:20125800C002C001C000C0D075D000C2E8903A19E06020903A19E4F090E6BFE0FE7F009098
:20127800E6BEE0FD7C00903A15ED4FF0EC4EA3F0120ACE120AA1903A18E0FFBF3102803176
:20129800BF32028029BF39028005BF3C24800B90E68BE0F5821205CB8017903A05E0F52CD0
:2012B80090E68BE0F52D90E7401206ED800312098C90E68BE4F0AF9174EF5FF59190E65FFB
:2012D8007402F0903A15E0F5F0A3E045F0700990E6A0E0FF74804FF0D2E8D0D0D000D00198
:2012F800D002D003D004D005D006D007D083D082D0F0D0E0D02132C0E0C082C083C007C0F7
:20131800D075D000AF9174EF5FF59190E65F7404F0D0D0D007D083D082D0E032C0E0C082FB
:20133800C083C007C0D075D000AF9174EF5FF59190E65F7408F0D0D0D007D083D082D0E021
:2013580032C0E0C082C083C007C0D075D000AF9174EF5FF59190E65F7410F0D0D0D007D06A
:2013780083D082D0E032C0E0C082C083C007C0D075D000AF9174EF5FF59190E65F7420F0FC
:20139800D0D0D007D083D082D0E032C0E0C082C083C007C0D075D000AF9174EF5FF591905E
:2013B800E65F7440F0D0D0D007D083D082D0E032C0E0C082C083C007C0D075D000AF9174B9
:2013D800EF5FF59190E65F7480F0D0D0D007D083D082D0E032752A00752B03903A10120537
:2013F800F8903A10E0FFBF43028003021484903A11E0FFBF4476903A12E0FFBF306E903AEE
:20141800067401F0752A10752B0A90008A1205F8752A20752B05903A101205F8903A10E0C0
:20143800FF6030BFFF02802B903A11E0FF6024BFFF02801F759B107E107F3A8F068E9A7564
:201458009E007E007F1C8F068E9DC0027A041202BED002903A14E06018752A24752B2090D0
:201478001BCF1205F8901BEFE4F08005903A06E4F07F00EF248AF582E43400F583E0FEBE05
:2014980030550FBF0A0040EB752AFB752B05903A101205F87F007E00EE2410F582E4343A9C
:2014B800F583E0FDEF248AFBE43400FCEDC4540F901C8493FA8B828C83F00FEF248AFBE4AB
:2014D8003400FC740F5D901C8493FD8B828C83F00F0EBE050040C12290E680E0FF74084F75
:2014F800F090E6007412F0900002120268AF8E74F85FF58E12082AC2AFC2E89000437402B7
:20151800F090004414F090004574B8F090E668E0FF74084FF09001007402F07E2D7F0B8FC7
:2015380005900101EDF0900102EEF09001047402F07ECF7F108F05900105EDF0900106EE4B
:20155800F09001087402F07EF47F108F05900109EDF090010AEEF090010C7402F07E197FE6
:20157800118F0590010DEDF090010EEEF09001107402F07E3E7F118F05900111EDF09001BF
:2015980012EEF09001147402F07E637F118F05900115EDF0900116EEF09001187402F07E9E
:2015B800887F118F05900119EDF090011AEEF09001207402F07EAD7F118F05900121EDF062
:2015D800900122EEF09001247402F07E447F128F05900125EDF0900126EEF0900128740209
:2015F800F07E0F7F138F05900129EDF090012AEEF090012C7402F07E347F138F0590012D47
:20161800EDF090012EEEF09001307402F07E597F138F05900131EDF0900132EEF09001340F
:201638007402F07E7E7F138F05900135EDF0900136EEF09001387402F07EA37F138F0590BC
:201658000139EDF090013AEEF090013C7402F07EC87F138F0590013DEDF090013EEEF0AF0C
:201678009174EF5FF59190E65D747FF090E65CE0FF747F4FF090E65F74FFF090E65EF0D212
:20169800E8D2AF90E61174A0F00000000090E61074A0F00000000090E61274E2F0000000E6
:2016B8000090E61374A2F00000000090E61474EAF00000000090E615E4F000000000121327
:2016D800ED90E680E0FF74824FF090000A12026890E680E0FF74F75FF02290E6A3E0FF74C8
:2016F800FE5FF00000000090E6A4E0FF74FE5FF00000000090E6957480F00000000090E666
:20171800957480F090E604F00000000090E6047402F00000000090E604E4F000000000227E
:2017380090E6A3E05408FF70047F0180027F007E008F828E832285820A85830B85F00C7B66
:20175800007C00C3EB9508EC9509502B74FE2C40268B0174F02CFAEB250AF8EC350BFEAFA0
:201778000C88828E838FF0121BAAF889828A83F00BBB00CF0C80CC90E690E509F000000003
:2017980000AE0890E691EEF08B828C832285822F75080175090090002F75F04002174E90CB
:2017B800E6A4E05404FF70047F0180027F007E008F828E832290E694E0FE7F0090E695E047
:2017D8007C004FF582EC4EF5832285820A85830B85F00C90E694E0FB7C0090E695E0F97A77
:2017F80000E94CF50DEA4BF50E79007A00C3E9950DEA950E5031C3E99508EA950950287456
:20181800FE2A4023E9250AF8EA350BFBAC0C898274F42AF583E0FF88828B838CF0121B8FF4
:2018380009B900C90A80C60000000090E6957480F089828A8322753000750801750900905B
:20185800003075F0401217E28530822275B407000000000000000022AF827E00EF33920082
:2018780092A1EF2FFFC2A000000000D2A000000000C2A0000000000EBE080040DF227F0036
:201898007E00C2A200000000D2A200000000C2A200000000EF2FFDA2A3E433FC4DFF0EBEEB
:2018B800080040DE8F8222E5822582FF74014FF582121870853182021870E58225E0F58230
:2018D80012187002189690E6047480F00000000090E61AE4F00000000090E6047486F00080
:2018F80000000090E604E4F00000000090E61474EAF00000000090E61A740DF000000000A9
:2019180090E6047406F00000000090E604E4F00000000090E618E0FF74FE5FF0000000004F
:2019380090E619E0FF74FE5FF00000000090E61BE0FF74FE5FF00000000090E6247404F02D
:201958000000000090E625E4F00000000090E60974FFF0000000000000000090E63474C13F
:20197800F00000000090E63574FFF00000000075320175330022AD82AE83AFF0E53445354D
:201998007003021B3CC3E5369402E53794005003021B3C8D828E838FF0121BAAFCBC010262
:2019B800800FBC0203021A43BC0303021ABA021B0F7402B53406E4B53502800280538D8203
:2019D8008E838FF0E4121B8F042DF9E43EFA8F0389828A838BF0121BAAF582C007C006C0B9
:2019F80005C003C002C0011218D2A882D001D002D003D005D006D00789828A838BF0E812D9
:201A18001B8F7508027509008D828E838FF002174E8D828E838FF074E1121B8F750801755E
:201A380009008D828E838FF002174E7403B53406E4B535028002805074012DF9E43EFA8FB1
:201A58000389828A838BF0121BAAF974022DF8E43EFA8F0388828A838BF0121BAAF53189A7
:201A780082C007C006C0051218BFD005D006D0078D828E838FF0E4121B8F750801F5098DC7
:201A9800828E838FF002174E8D828E838FF074E1121B8F7508017509008D828E838FF00268
:201AB800174E7401B53406E4B535028002802ED28090000AC007C006C005120293D005D0BB
:201AD80006D007C2808D828E838FF0E4121B8F750801F5098D828E838FF002174E8D828E71
:201AF800838FF074E1121B8F7508017509008D828E838FF002174E74012DF9E43EFA8F0370
:201B180089828A838BF0EC121B8F8D828E838FF074E2121B8F7508027509008D828E838F15
:201B3800F002174E7538E175080175090090003875F04002174E1214F01216F21218DE128E
:201B580017B7E5828583F045F060F475080875090090003975F0401217E2AE82AF830000D9
:171B780000008E348F3575360875370090003975F04012198E80C802
:201BCA005A544558004661756C74496E6A656374696F6E465047413230340000000000005D
:201BEA0000000000007064656661756C740012010002FFFFFF401A220001000001020301F0
:201C0A000A060002FFFFFF40010009023500010104C0320904000005FFFFFF000705810294
:201C2A00000200070501020002000705820200020007050402000200070586020004000049
:201C4A0009023500010104C0320904000005FFFFFF00070581024000000705010240000015
:201C6A00070582024000000705040240000007058602400000000403040930313233343521
:181C8A003637383941424344454600000000FF000000000000000000D0
:06023500E478FFF6D8FD9D
:20021300790DE94400601B7A01901C95781575923AE493F2A308B800020592D9F4DAF275A0
:0202330092FF38
:1B1B8F0020F71130F6138883A88220F509F6A8837583002280FEF280F5F02255
:20023B007800E84400600A790075923AE4F309D8FC7815E84400600C7901903A00E4F0A347
:04025B00D8FCD9FAF8
:0D020600758140121BC6E5826003020203F1
:1C1BAA0020F71430F6148883A88220F507E6A88375830022E280F7E49322E0224A
:041BC6007582002202
:00000001FF
