:03020000020206F1
:08025F00E4F52DF52E02020367
:0302030002164898
:0400000002020032C6
:01000B0032C2
:0100130032BA
:01001B0032B2
:0100230032AA
:01002B0032A2
:01003300329A
:01003B003292
:01004300328A
:01004B003282
:01005300327A
:01005B003272
:01006300326A
:0101000032CC
:0101040032C8
:0101080032C4
:01010C0032C0
:0101100032BC
:0101140032B8
:0101180032B4
:0101200032AC
:0101240032A8
:0101280032A4
:01012C0032A0
:01013000329C
:010134003298
:010138003294
:01013C003290
:01014000328C
:010148003284
:01014C003280
:01015000327C
:010154003278
:010158003274
:01015C003270
:01016000326C
:01017000325C
:010174003258
:010178003254
:01017C003250
:01018000324C
:010184003248
:010188003244
:01018C003240
:01019000323C
:010194003238
:010198003234
:01019C003230
:0101A000322C
:0101A8003224
:0101AC003220
:0101B000321C
:0101B4003218
:0101B8003214
:20026700AE82AF837C007D00C3EC9EED9F501B7AB07B04EA24FFF8EB34FFF988028903E815
:200287004970F00CBC00E10D80DE22AE82AF837C007D00C3EC9EED9F501B7A0A7B00EA24CC
:2002A700FFF8EB34FFF988028903E84970F00CBC00E10D80DE2275AF0790E67BE090E67C5E
:2002C700F0DAF3227F00BFFF00500D90E678E0FE13920040030F80EE90E678E0FF20E2049A
:2002E700EF20E10D90E678E0FF74404FF075820122758200227F00BFFF00500D90E678E09F
:20030700FE13920140030F80EE90E678E0FF30E20D90E678E0FF74404FF0758201227582B5
:2003270000227F0090E678E0FE20E204758200220FBFFF0040EE758201227F0090E678E0C8
:20034700FE20E604758200220FBFFF0040EE75820122AF82C3E49FE433FF90E678E0FE7493
:20036700804EF0C00712032990E67974A2F01202CBE582D0077014E522600C90E678E0FEDE
:2003870074404EF012034175820022EF600C90000AC007120292D00780C0E522600990E696
:2003A70078E0FF74404FF075820122AE82AF837D00E5257003F58222752200758264C00724
:2003C700C006C005120359E582D005D006D00760030204BEAC2490E679ECF0C007C006C025
:2003E700051202CBE582D005D006D00760030204BE90E679E523F0C007C006C0051202CBEA
:20040700E582D005D006D00760030204BE90E678E0FC74404CF0C007C006C00512034190D3
:20042700E678E0FC74804CF012032990E67974A3F01202CBE582D005D006D007707990E6F0
:2004470079E08E828F83F0C007C006C0051202FCE582D005D006D007705DFCC3EC9525505D
:200467002A90E679E08E828F83F0A3AE82AF83C007C006C005C0041202FCE582D004D0052F
:20048700D006D00770310C8C0580D090E678E0FF74204FF090E679E0C0051202FCE582D09F
:2004A70005701490E678E0FF74404FF090E679E0C005120341D0058D8222AE82AF837D001D
:2004C7008D22758264C007C006C005120359E582D005D006D0076003020578AC2790E679BE
:2004E700ECF0C007C006C0051202CBE582D005D006D007600302057890E679E526F0C0076C
:20050700C006C0051202CBE582D005D006D0077060FCC3EC952850498E828F83E090E679BF
:20052700F08E828F83E0FBA3AE82AF83903204E02BF0903202E0FAA3E0FB90320274012A82
:20054700F0E43BA3F0C007C006C005C0041202CBE582D004D005D006D00770150C8C05809E
:20056700B190E678E0FF74404FF0C005120341D0058D822290320EE0FF903200E0F523A3D6
:20058700E0F5248F2590E740C0071203B2AE82D0077D00903200E0FBA3E0FC903200EF2BE6
:2005A700F0ED3CA3F08E8222AF82903200E0F526A3E0F5278F2890E740C0071204C1D007E6
:2005C7007E00903200E0FCA3E0FD903200EF2CF0EE3DA3F022AF8290E6017480F00000003F
:2005E7000090E670E4F090E671F075B2FA74804FF58090000AC007120267D00753B4F77465
:20060700024FF5807E007F00208010C3EE94FFEF94FF50070EBE00F00F80ED3080047FC810
:2006270080027F6490320AEFF0903206E4F0A3F0A3F0A3F0903205F0227582200205DC7506
:2006470082600205DC02064075B43F43B201C28090E60174E3F00000000090E60BE4F000D3
:200667000000000000000090E6997480F00000000090E6997480F090E604F0000000009093
:20068700E61AE4F00000000090E6047406F00000000090E61A740DF00000000090E604E43C
:2006A700F000000000223080047F1480027F0A90320AE02FF07E007F00D283C2830EBE00A1
:2006C700010FC3EE94FFEF94FF40EED283C283D283C283D283C283D283C283D287D283C237
:2006E70083D283C283D283C283D283C28375B2003080047F0280027F0190320AE0FE2FF07B
:20070700308105D28112064FD28143B2022285B52975B5FF90320EE0FE903206E0FAA3E097
:20072700FBA3E0FCA3E0FD8E0079007E007F00903206E82AF0E93BA3F0EE3CA3F0EF3DA3A7
:20074700F090E68BE06022FA759B40759AE775AF07903205E0F990E67BE0F5B0D28329F947
:1A076700C283DAF5903205E9F08529B590E68BE0FFBF400050030206AD2258
:20006C0028015A5445580A0C00000001030000000000000000000000000000000000303086
:08008C003030303030303030EC
:2007810090E683E4F07420F003F07430F07401F07421F07411F07431F07412F07432F0740C
:2007A10004F07424F07416F07436F022AF82E50924E0500375091F75AF078F9B85089A7E79
:2007C100407FE7EE04F59E7E407FE70EBE00010F8F9D90E67C7403F07F00C3EF9509500E3B
:2007E10090E67BE0FE90E67CF0E4F00F80ECE5090425E0FF90E740F090E7417403F090E6C6
:200801008AE4F090E68BEFF02290320CE0FEA3E0FFC374409EE49F50067C407D0080048E10
:20082100048F0590320EECF07D0090320CEEC39CF0EF9DA3F02290320FE0FFBF3102802B5D
:20084100BF320122BF3927903204E4F0903202F0A3F090E6BBE0FE7F0090E6BAE0FD7C006C
:20086100903200ED4FF0EC4EA3F02202064C90E6A0E0FF74014FF022C021C0E0C0F0C08208
:20088100C083C007C006C005C004C003C002C001C000C0D075D00090E6B9E0FF90320FF054
:2008A10090E6B57401F090E6B9E0FF24F35003020C4AEFF5F0240B83F582E5F0241183F558
:2008C10083E473DE924A124A4AADDFE1F1F6060B08090C0A0C0C0A0B0B0B0B0C0C90E6B8BD
:2008E100E0FFBF8002800DBF8102801EBF8202802F020C4A90E740E4F090E741F090E68AED
:20090100F090E68B7402F0020C4A90E740E4F090E741F090E68AF090E68B7402F0020C4A45
:2009210090E6BCE0FF600FBF01028019BF80028005BF812F801E90E6A0E0FF53070190E741
:2009410040EFF0803A90E6A1E0FF53070190E740EFF0802B90E6A2E0FF53070190E740EF33
:20096100F0801C90E6BCE0C31314540324A3F582E434E6F583E0FF53070190E740EFF09083
:20098100E741E4F090E68AF090E68B7402F0020C4A90E6B8E0FFBF02028003020C4A90E68A
:2009A100BAE06003020C4A90E6BCE0FF600FBF01028016BF80028005BF8126801890E6A02F
:2009C100E0FF74FE5FF0020C4A90E6A1E0FF74FE5FF0020C4A90E6A2E0FF74FE5FF0020C49
:2009E1004A90E6BCE0C31314540324A3FEE434E6FF90E6BCE0C31314540324A3F582E434EE
:200A0100E6F583E0FD5305FE8E828F83EDF0020C4A90E6B8E0FFBF02028003020C4A90E6CC
:200A2100BAE06003020C4A90E6BCE0FF600FBF01028015BF80028005BF8123801690E6A0B4
:200A4100E0FF74014FF0804390E6A1E0FF74014FF0803890E6A2E0FF74014FF0802D90E60F
:200A6100BCE0C31314540324A3FEE434E6FF90E6BCE0C31314540324A3F582E434E6F583CF
:200A8100E0FD4305FE8E828F83EDF090E6BCE05480C423541FFF90E6BCE0FE740F5E4207BA
:200AA10090E683EFF074204FF0020C4A90E6BBE0FFBF01028019BF02028028BF03028053C5
:200AC100BF0603020B91BF0703020BA5020BD47EE67F168F0690E6B3EEF090E6B474E6F04A
:200AE100020C4A90E680E0FF30E7147E027F178F0690E6B3EEF090E6B47402F0020C4A7E85
:200B0100387F178F0690E6B3EEF090E6B47438F0020C4A90E6BAE0FFBF0102800FBF020229
:200B2100801EBF0302802DBF0452803C7582C47EC47F168F068E087509051207AD020C4A76
:200B41007582C97EC97F168F068E087509131207AD020C4A75828A7E8A7F008F068E087576
:200B6100090A1207AD020C4A7582DC7EDC7F168F068E0875090A1207AD020C4A7E6E7F172E
:200B81008F0690E6B3EEF090E6B4746EF0020C4A7EF87F168F0690E6B3EEF090E6B474F827
:200BA100F0020C4A90E680E0FF30E7147E387F178F0690E6B3EEF090E6B47438F0020C4AE6
:200BC1007E027F178F0690E6B3EEF090E6B47402F0807690E6A0E0FF74014FF0806B80695F
:200BE10090E740E4F090E68AF090E68B04F08059120781805490E740E4F090E68AF090E64C
:200C01008B04F08044120781803F90E6B8E0FFBF823790E6BCE0C31314540375F002A42430
:200C210011F582743235F0F583E4F0A3F090E685E090E740F090E684E0FF90E741F090E608
:200C41008AE4F090E68B7402F090E6B8E0FFBF4003020D6FBFC0028003020D9990E6BFE080
:200C6100FE7F0090E6BEE0FD7C0090320CED4FF0EC4EA3F012080A90E6B9E0FFBF2202800D
:200C810013BF3003020D17BF38028025BF3A028049020D6490E6B5E4F090E68AF090E68B63
:200CA1007428F090E6B3E4F090E6B4746CF0020D9990E6BBE0FE7F0090E6BAE0FD7C009061
:200CC1003200ED4FF0EC4EA3F090E68AE4F012057BE58290E68BF0020D99903202E0FEA33D
:200CE100E090E740EEF0903202E0A3E090E741F0903204E090E742F07522017582001203BC
:200D010059AF8290E743EFF090E68AE4F090E68B7404F0020D99759B057E057F328F068E5E
:200D21009A759E417E417FE78F068E9DC0027A071202BDD00253B2FD30810C90E740E4F0AF
:200D4100D28143B202800990E7407401F012064090E7487401F090E68AE4F090E68B7409D5
:200D6100F0803590E6A0E0FF74014FF0802A90E6BFE0700690E6BEE060169032107401F02E
:200D810090E68BE4F05391EF90E65D7401F0801A12083790E68BE4F05391EF90E65D740197
:200DA100F090E6A0E0FF74804FF0D0D0D000D001D002D003D004D005D006D007D083D08239
:200DC100D0F0D0E0D02132C0E0C082C0835391EF90E65D7402F0D083D082D0E032C0E0C067
:200DE10082C0835391EF90E65D7404F0D083D082D0E032C0E0C082C0835391EF90E65D7459
:200E010008F0D083D082D0E032C0E0C082C0835391EF90E65D7410F0D083D082D0E032C0CC
:200E2100E0C082C0835391EF90E65D7420F0D083D082D0E032C0E0C082C0835391EF90E62D
:200E41005D7440F0D083D082D0E032C021C0E0C0F0C082C083C007C006C005C004C003C0BA
:200E610002C001C000C0D075D000C2E812080A90320FE0FFBF30028023BF38028005BF3A90
:200E810012801990E68AE4F012057BE58290E68BF0800990E68AE4F090E68BF05391EF9037
:200EA100E65F7401F0D2E8D0D0D000D001D002D003D004D005D006D007D083D082D0F0D05C
:200EC100E0D02132C021C0E0C0F0C082C083C007C006C005C004C003C002C001C000C0D0AC
:200EE10075D000C2E8903210E06020903210E4F090E6BFE0FE7F0090E6BEE0FD7C00903249
:200F01000CED4FF0EC4EA3F012083712080A90320FE0FFBF31028016BF3202800EBF390E97
:200F210090E68BE0F5821205AF800312071590E68BE4F05391EF90E65F7402F090320CE050
:200F4100F5F0A3E045F0700990E6A0E0FF74804FF0D2E8D0D0D000D001D002D003D004D00E
:200F610005D006D007D083D082D0F0D0E0D02132C0E0C082C0835391EF90E65F7404F0D081
:200F810083D082D0E032C0E0C082C0835391EF90E65F7408F0D083D082D0E032C0E0C082F7
:200FA100C0835391EF90E65F7410F0D083D082D0E032C0E0C082C0835391EF90E65F7420E9
:200FC100F0D083D082D0E032C0E0C082C0835391EF90E65F7440F0D083D082D0E032C0E001
:200FE100C082C0835391EF90E65F7480F0D083D082D0E03290E680E0FF74084FF090E60052
:201001007412F0538EF8D28143B202C2AFC2E89000437402F090004414F090004574B8F019
:2010210090E668E0FF74084FF09001007402F07E797F088F05900101EDF0900102EEF090BE
:2010410001047402F07EC87F0D8F05900105EDF0900106EEF09001087402F07EDE7F0D8F60
:2010610005900109EDF090010AEEF090010C7402F07EF47F0D8F0590010DEDF090010EEEDD
:20108100F09001107402F07E0A7F0E8F05900111EDF0900112EEF09001147402F07E207F87
:2010A1000E8F05900115EDF0900116EEF09001187402F07E367F0E8F05900119EDF0900189
:2010C1001AEEF09001207402F07E4C7F0E8F05900121EDF0900122EEF09001247402F07E5C
:2010E100C57F0E8F05900125EDF0900126EEF09001287402F07E717F0F8F05900129EDF01A
:2011010090012AEEF090012C7402F07E877F0F8F0590012DEDF090012EEEF090013074027C
:20112100F07E9D7F0F8F05900131EDF0900132EEF09001347402F07EB37F0F8F05900135FD
:20114100EDF0900136EEF09001387402F07EC97F0F8F05900139EDF090013AEEF090013C57
:201161007402F07EDF7F0F8F0590013DEDF090013EEEF05391EF90E65D747FF090E65CE0F6
:20118100FF747F4FF090E65F74FFF090E65EF0D2E8D2AF90E61174A0F00000000090E610D5
:2011A10074A0F00000000090E61274E2F00000000090E61374A2F00000000090E61474EAE5
:2011C100F00000000090E615E4F00000000090E680E0FF74824FF09000FA12026790E680BA
:2011E100E0FF74F75FF02290E6A3E0FF74FE5FF00000000090E6A4E0FF74FE5FF0000000C0
:201201000090E6957480F00000000090E6957480F090E604F00000000090E6047402F000A5
:2012210000000090E604E4F0000000002290E6A3E0FFA2E3920240047F0180027F007E00E9
:201241008F828E832285820A85830B85F00C7B007C00C3EB9508EC9509502B74FE2C402659
:201261008B0174F02CFAEB250AF8EC350BFEAF0C88828E838FF01216A4F889828A83F00BEF
:20128100BB00CF0C80CC90E690E509F000000000AE0890E691EEF08B828C832285822A7508
:2012A100080175090090002A75F04002124690E6A4E0FFA2E2920340047F0180027F007E98
:2012C100008F828E832290E694E0FE7F0090E695E07C004FF582EC4EF5832285820A858348
:2012E1000B85F00C90E694E0FB7C0090E695E0F97A00E94CF50DEA4BF50E79007A00C3E994
:20130100950DEA950E5031C3E99508EA9509502874FE2A4023E9250AF8EA350BFBAC0C895E
:201321008274F42AF583E0FF88828B838CF012168909B900C90A80C60000000090E69574A2
:2013410080F089828A8322752B0075080175090090002B75F0401212DC852B822275B40762
:20136100000000000000000022AF827E00EF33920492A1EF2FFFC2A000000000D2A00000BF
:201381000000C2A0000000000EBE080040DF227F007E00C2A200000000D2A200000000C23E
:2013A100A200000000EF2FFDA2A3E433FC4DFF0EBE080040DE8F8222E5822582FF74014FD5
:2013C100F58212136A852C8202136AE58225E0F58212136A02139090E6047480F0000000DF
:2013E1000090E61AE4F00000000090E6047486F00000000090E604E4F00000000090E6144C
:2014010074EAF00000000090E61A740DF00000000090E6047406F00000000090E604E4F04A
:201421000000000090E618E0FF74FE5FF00000000090E619E0FF74FE5FF00000000090E6D8
:201441001BE0FF74FE5FF00000000090E6247404F00000000090E625E4F00000000090E6E9
:201461000974FFF0000000000000000090E63474C1F00000000090E63574FFF00000000022
:20148100752D01752E0022AD82AE83AFF0E52F45307003021636C3E5319402E53294005030
:2014A100030216368D828E838FF01216A4FCBC0102800FBC020302153DBC03030215B40281
:2014C10016097402B52F06E4B53002800280538D828E838FF0E4121689042DF9E43EFA8F63
:2014E1000389828A838BF01216A4F582C007C006C005C003C002C0011213CCA882D001D0BE
:2015010002D003D005D006D00789828A838BF0E81216897508027509008D828E838FF002A9
:2015210012468D828E838FF074E11216897508017509008D828E838FF00212467403B52F5D
:2015410006E4B530028002805074012DF9E43EFA8F0389828A838BF01216A4F974022DF82B
:20156100E43EFA8F0388828A838BF01216A4F52C8982C007C006C0051213B9D005D006D087
:20158100078D828E838FF0E4121689750801F5098D828E838FF00212468D828E838FF07487
:2015A100E11216897508017509008D828E838FF00212467401B52F0614B530028002802E19
:2015C100D28090000AC007C006C005120292D005D006D007C2808D828E838FF0E41216892E
:2015E100750801F5098D828E838FF00212468D828E838FF074E11216897508017509008D47
:20160100828E838FF002124674012DF9E43EFA8F0389828A838BF0EC1216898D828E838F35
:20162100F074E21216897508027509008D828E838FF00212467533E17508017509009000A7
:201641003375F040021246120FF51211E81213D81212AFE5828583F045F060F47508087584
:20166100090090003475F0401212DCAE82AF83000000008E2F8F3075310875320090003400
:0816810075F04012148880C8C6
:2016C4005A544558004661756C74496E6A656374696F6E465047410028756E6B6E6F776EC6
:2016E400290012010002FFFFFF401A2200010000010203010A060002FFFFFF4001000902CC
:201704003500010104C0320904000005FFFFFF0007058102000200070501020002000705DB
:20172400820200020007050402000200070586020004000009023500010104C0320904002E
:201744000005FFFFFF00070581024000000705010240000007058202400000070504024043
:1B1764000000070586024000000004030000000000FF00000000000000000090
:06023500E478FFF6D8FD9D
:20021300790DE94400601B7A01901772780C759232E493F2A308B800020592D9F4DAF275D9
:0202330092FF38
:1B16890020F71130F6138883A88220F509F6A8837583002280FEF280F5F02260
:20023B007800E84400600A7900759232E4F309D8FC780CE84400600C7901903200E4F0A360
:04025B00D8FCD9FAF8
:0D02060075813B1216C0E582600302020301
:1C16A40020F71430F6148883A88220F507E6A88375830022E280F7E49322E02255
:0416C000758200220D
:00000001FF
